:020000040800F2
:10000000483F01200D020008493000085B26000827
:10001000752D000819030008F93A000800000000D7
:100020000000000000000000000000004D3000084B
:10003000B1040008000000004B3000084F300008F9
:1000400027020008270200082702000827020008EC
:1000500027020008270200082702000827020008DC
:1000600027020008270200082702000827020008CC
:1000700027020008270200082702000827020008BC
:1000800027020008270200082702000827020008AC
:10009000270200082702000827020008270200089C
:1000A000270200082702000827020008270200088C
:1000B00099310008A9310008B93100082702000869
:1000C000270200082702000827020008270200086C
:1000D000270200082702000827020008E93A000862
:1000E000270200082702000827020008270200084C
:1000F000270200082702000827020008270200083C
:10010000270200082702000827020008270200082B
:1001100031350008270200082702000827020008DE
:10012000270200082702000827020008270200080B
:1001300027020008270200082702000827020008FB
:1001400027020008270200082702000827020008EB
:1001500027020008270200082702000827020008DB
:1001600027020008270200082702000827020008CB
:1001700027020008270200082702000800000000EC
:1001800027020008270200082702000827020008AB
:10019000270200082702000827020008270200089B
:1001A000270200082702000827020008270200088B
:1001B000270200082702000827020008270200087B
:1001C000270200082702000800000000270200089C
:1001D000270200082702000827020008270200085B
:1001E000270200082702000827020008270200084B
:1001F0002702000827020008DFF80CD000F07AF888
:1002000000480047533B0008483F0120064880470C
:1002100006480047FEE7FEE7FEE7FEE7FEE7FEE7EB
:10022000FEE7FEE7FEE7FEE735310008F9010008CA
:100230002DE9F05F0546002092469B46884606461B
:10024000814640241BE0284641464746224600F0AE
:1002500041F853465A46C01A914110D311461846E8
:10026000224600F028F82D1A67EB01084F46224677
:100270000120002100F01FF817EB00094E41201E5D
:10028000A4F10104DFDC484631462A464346BDE876
:10029000F09FD2B201E000F8012B491EFBD270475B
:1002A0000022F6E710B513460A4604461946FFF742
:1002B000F0FF204610BD202A04DB203A00FA02F1AC
:1002C000002070479140C2F1200320FA03F3194344
:1002D00090407047202A04DB203A21FA02F00021E6
:1002E000704721FA02F3D040C2F120029140084346
:1002F00019467047064C074D06E0E06840F00103E0
:1003000094E8070098471034AC42F6D3FFF778FF23
:10031000A03B0008C03B000800BFFEE710B500216D
:10032000014801F0E7FE10BDC439012010B50724D3
:10033000FFF7F4FF4FF4FA6000F0D0F802F014FE7B
:100340003C2300223021104602F016FD43F698208F
:1003500000F0C4F800F08AF8DFED410A9FED410A91
:1003600002F0B0FD4FF4FA5000F0B8F86DE05323FE
:1003700044221946302002F073F94FF4FA7000F06D
:10038000ADF866234B225321442002F069F94FF463
:10039000FA7000F0A3F85323512266214B2002F09B
:1003A0005FF94FF4FA7000F099F85323652219466B
:1003B000512002F055F94FF4FA7000F08FF84723FE
:1003C00055225321652002F04BF94FF4FA7000F0EA
:1003D00085F834235B224721552002F041F94FF480
:1003E000FA7000F07BF840234B2234215B2002F0AE
:1003F00037F94FF4FA7000F071F834233A224021B3
:100400004B2002F02DF94FF4FA7000F067F8472303
:10041000412234213A2002F023F94FF4FA7000F01F
:100420005DF8532330224721412002F019F94FF49F
:10043000FA7000F053F8DFED0C0A9FED0A0A02F0A3
:1004400041FD4FF4FA7000F049F8201EA4F10101BB
:10045000CCB28CD100F012F802F0E2FD10BD000029
:100460000000084200000000CDCC4C3E4FF4AF60CD
:100470000149096848637047C439012010B500215B
:10048000014801F0C1FE10BDC43901200146002021
:1004900008E00022054B23F8202003EB80035A805C
:1004A000421C90B28842F4DB7047000080EA0020D2
:1004B00070477047014691F83500022803D080202C
:1004C000486501207047052081F8350008680068FC
:1004D00020F001000A6810600020F3E770B50446C0
:1004E00000F02AF906462546681C10B10448007839
:1004F000054400BF00F020F9801BA842FAD370BD6C
:1005000018000020F8B502460B4600210025002403
:10051000002000BFE4E0012606FA01F51E6806EAA5
:100520000504AC4271D15E68022E02D05E68122EC4
:1005300013D1CF0802F1200656F827004E07F70E18
:100540000F26BE40B0434F07FF0E1E69BE4030432A
:10055000CF0802F1200646F8270010684F00032656
:10056000BE40B0431E7906F003064F00BE40304344
:1005700010605E68012E08D05E68022E05D05E68AD
:10058000112E02D05E68122E13D190684F00032600
:10059000BE40B0434F00DE68BE40304390605068BC
:1005A00001268E40B0431E79C6F300168E403043BC
:1005B0005060D0684F000326BE40B0434F009E6895
:1005C000BE403043D0605E6806F08056B6F1805F72
:1005D000A8D100BF444E366846F48046424F3E6084
:1005E0003E46366806F48046009600BF00BF3F4E88
:1005F0008F0856F827008E07370F0F26BE40B043EE
:100600003B4EB24202D100262EE068E0394EB242A3
:1006100001D1012628E0384EB24201D1022623E062
:10062000364EB24201D103261EE0354EB24201D110
:10063000042619E0334EB24201D1052614E0324EB1
:10064000B24201D106260FE0304EB24201D1072658
:100650000AE02F4EB24201D1082605E02D4EB242EB
:1006600001D1092600E00A268F073F0FBE40304324
:100670001E4E8F0846F82700274E3068A0435E685C
:1006800006F48036B6F5803F00D12043224E30601C
:10069000361D3068A0435E6806F40036B6F5003FAC
:1006A00000D120431C4E361D3060361D3068A043FB
:1006B0005E6806F48016B6F5801F00D12043164E02
:1006C00008363060361D3068A0435E6806F40016B8
:1006D000B6F5001F00D120430F4E0C363060491C88
:1006E0001029FFF418AFF8BD443802400838014023
:1006F000000002400004024000080240000C0240DA
:10070000001002400014024000180240001C024089
:100710000020024000240240003C014002461369D0
:100720000B400BB1012000E0002070470AB181614D
:1007300001E00B04836170470148006870470000C6
:100740001000002003480068034909780844014963
:1007500008607047100000201800002010B503202A
:1007600000F0A0F8002000F005F800F029F80020C3
:1007700010BD000070B504460E4800784FF47A7141
:10078000B1FBF0F00C490968B1FBF0F5284601F027
:10079000FFF808B1012070BD102C07D200222146BD
:1007A000501E00F041F80548046001E00120F2E726
:1007B0000020F0E7180000201C000020140000209A
:1007C00008B500BF0F48006840F080500D49086030
:1007D0000846006800F08050009000BF00BF00BFD6
:1007E000081D006840F48040091D08600846006844
:1007F00000F48040009000BF00BF052000F052F8D8
:1008000008BD00004038024001460846002809DBC8
:1008100000F01F0301229A4043099B0003F1E023EB
:10082000C3F8002100BF70472DE9F05F80460D46F8
:100830001646002703F062F9074639462A46334632
:1008400001F00700C0F1070ABAF1040F02D94FF016
:10085000040A01E0C0F1070AD14600F1040ABAF126
:10086000070F02D24FF0000A01E0A0F1030AD446BC
:100870004FF0010A0AFA09FAAAF1010A0AEA020A81
:100880000AFA0CFA4FF0010B0BFA0CFBABF1010B5F
:100890000BEA030B4AEA0B042146404603F036F903
:1008A000BDE8F09F00BF00F00702064B19684FF645
:1008B000FF031940044B0B4343EA0221014B19602B
:1008C00000BF70470CED00E00000FA0538B50024C9
:1008D00000BF2048006840F080501E49086008466C
:1008E000006800F08050009000BF00BF1A48006808
:1008F00040F4803018490860FFF71EFF044607E007
:10090000FFF71AFF001BB0F57A7F01D9032038BD2D
:100910001148406800F48030B0F5803FF0D10E48B7
:10092000006840F400300C490860FFF705FF0446FA
:1009300007E0FFF701FF001BB0F57A7F01D9032024
:10094000E5E70548406800F40030B0F5003FF0D11D
:100950000020DCE740380240007000400348006897
:1009600040F480700149086070470000007000404A
:100970002DE9F8430446002600250027A846A9468D
:10098000207800F0010088B100BFFE48006820F424
:100990000000FC49086008460068616B0843F9499B
:1009A000086000BF606B08B94FF00108206800F4D0
:1009B0000020B0F5002F13D1F2488430006820F4F5
:1009C0004010E16B0843EF4984310860E06BB0F5FB
:1009D000801F01D14FF00108E06B08B94FF0010909
:1009E000206800F48010B0F5801F13D1E5488430F2
:1009F000006820F44000216C0843E249843108601B
:100A0000206CB0F5800F01D14FF00108206C08B9BF
:100A10004FF00109206800F08070B0F1807F01D1B3
:100A20004FF00108207800F02000202870D100BF8E
:100A3000D4483830006840F08050D24938310860DE
:100A40000846006800F08050009000BF00BFCE480C
:100A5000006840F48070CC490860FFF76DFE0646E0
:100A600007E0FFF769FE801B642802D90320BDE878
:100A7000F883C548006800F480700028F1D0C148B0
:100A80006830006800F4407585B3208E00F4407033
:100A9000A8422BD0BB486830006820F44075B948A4
:100AA0006830006840F48030B64968310860084614
:100AB000006820F48030086008460560006800F097
:100AC000010098B1FFF738FE064608E0FFF734FE54
:100AD000801B41F28831884201D90320C7E7A94829
:100AE00068300068C0F340000028EFD000BF208EBF
:100AF00000F44070B0F5407F0BD1A248006820F4AC
:100B0000F810A24A216B114008439E49086006E094
:100B100010E09C48006820F4F8109A490860994851
:100B200068300068218EC1F30B0108439549683194
:100B3000086000BF207800F01000102810D100BF1E
:100B400090488430006820F080708E4984310860BD
:100B500008460068A16B08438A498431086000BFD9
:100B6000208800F48040B0F5804F09D18548883056
:100B7000006820F44030616E084382498831086083
:100B8000208800F40040B0F5004F09D17D4888303E
:100B9000006820F44020A16E08437A49883108603B
:100BA000206800F48030B0F5803F09D17548883066
:100BB000006820F44010E16E0843724988310860F3
:100BC000206800F40030B0F5003F09D16D4888304E
:100BD000006820F44000216F08436A4988310860AA
:100BE000207800F04000402809D16648883000682D
:100BF00020F00300616C0843624988310860207866
:100C000000F08000802809D15E488830006820F01C
:100C10000C00A16C08435B4988310860208800F40F
:100C20008070B0F5807F09D156488830006820F088
:100C30003000E16C0843534988310860208800F493
:100C40000070B0F5007F09D14E488830006820F070
:100C5000C000216D08434B4988310860208800F4AA
:100C60008060B0F5806F09D146488830006820F474
:100C70004070616D0843434988310860208800F462
:100C80000060B0F5006F09D13E488830006820F45C
:100C90004060A16D08433B4988310860208800F41A
:100CA0008050B0F5805F09D136488830006820F464
:100CB0004050E16D0843334988310860208800F4D2
:100CC0000050B0F5005F09D12E488830006820F44C
:100CD0004040216E08432B4988310860206800F4A9
:100CE0008000B0F5800F09D126488830006820F0D8
:100CF0008060A16F0843234988310860206800F4B0
:100D00000010B0F5001F0FD11E488830006820F099
:100D10000060E16F08431B4988310860E06FB0F163
:100D2000006F01D14FF00109207800F00800082879
:100D300001D14FF00109206800F48020B0F5802F28
:100D400009D110488830006820F04070616F084376
:100D50000C4988310860206800F40000B0F5000FED
:100D60000AD108488830006820F08050D4F88010FC
:100D70000843044988310860206800F08060B0F1C1
:100D8000806F05E00838024000700040FFFCFF0F54
:100D900008D1CC48006820F00050D4F884100843F3
:100DA000C8490860206800F00060B0F1006F0AD107
:100DB000C448001F006820F00070D4F88810084371
:100DC000C049091F0860206800F08050B0F1805FC2
:100DD0000AD1BC48001F006820F08060D4F88C1055
:100DE0000843B849091F0860B8F1010F03D0206813
:100DF000B0F1007F7ED1B3489038006820F0806069
:100E0000B04990390860FFF797FC064606E0FFF707
:100E100093FC801B642801D9032028E6A948903858
:100E20000068C0F3C0600028F1D1207800F0010014
:100E3000B8B1606BA8B9A3480C380068C0F301458D
:100E4000A0480C380068C0F303676068800140EA7E
:100E5000054040EA0761207A41EA007099490C395F
:100E60000860206800F40020B0F5002F03D1E06B8B
:100E7000B0F5801F09D0206800F48010B0F5801F05
:100E800024D1206CB0F5800F20D18E480C3800683A
:100E9000C0F301458B480C380068C0F302776068E6
:100EA000800140EA0541207B41EA006040EA07708A
:100EB00084490C3908608348001F006820F01F0037
:100EC000616A491E08437F49091F0860206800F0D5
:100ED0008070B0F1807F17D17A480C380068C0F379
:100EE000036578480C380068C0F3027760688101B8
:100EF000208A00E036E041EA004040EA056040EA2E
:100F0000077070490C390860206800F00070B0F17B
:100F1000007F0DD160688101208A41EA0041207B79
:100F200041EA0061207A41EA007066490C390860A4
:100F300064489038006840F08060624990390860E9
:100F4000FFF7FAFB064606E0FFF7F6FB801B642876
:100F500001D903208BE55B4890380068C0F3C0607E
:100F60000028F1D0B9F1010F7ED1564890380068C1
:100F700020F08050534990390860FFF7DDFB0646AA
:100F800006E0FFF7D9FB801B642801D903206EE53A
:100F90004C4890380068C0F340700028F1D12068B8
:100FA00000F40020B0F5002F01D1E06B38B12068CB
:100FB00000F48010B0F5801F22D1206C00BB4148A6
:100FC00008380068C0F301453E4808380068C0F39F
:100FD00002776069800140EA0541207E41EA0060B5
:100FE00040EA0770374908390860081D006820F496
:100FF000F851A06A401E41EA00203249091F0860EA
:10100000206800F40010B0F5001F19D1E06FB0F1B6
:10101000006F15D12B4808380068C0F303652948D4
:1010200008380068C0F3027760698101208C41EACA
:10103000004040EA056040EA07702249083908602C
:10104000207800F00800082820D11E4808380068E1
:10105000C0F303651B4808380068C0F301476069A6
:10106000800140EA074000E02AE040EA0561207F75
:1010700041EA0070134908390860081D006820F42F
:101080004030E16A08430F49091F08600D48903855
:10109000006840F080500B4990390860FFF74CFB26
:1010A000064606E0FFF748FB801B642801D90320B1
:1010B000DDE4044890380068C0F340700028F1D0A7
:1010C0000020D4E49038024070B504460D46002656
:1010D0000CB9012070BD5C48006800F00F00A84208
:1010E0000ED25948006820F00F0028435649086086
:1010F0000846006800F00F00A84201D00120E9E78F
:10110000207800F0020002281DD1207800F00400B1
:10111000042805D14D48006840F4E0504B49086070
:10112000207800F00800082805D14848006840F4FD
:101130006040464908604548006820F0F000A1681A
:10114000084342490860207800F0010090B36068CD
:10115000012807D13D4808380068C0F34040A0B9D5
:101160000120B7E76068022807D1384808380068CE
:10117000C0F3406048B90120ACE734480838006843
:10118000C0F3400008B90120A4E73048006820F00F
:101190000300616808432D490860FFF7CDFA064651
:1011A00009E0FFF7C9FA801B41F28831884202D971
:1011B00003208FE707E02548006800F00C00616815
:1011C000B0EB810FEDD12048006800F00F00A8427D
:1011D0000ED91D48006820F00F0028431A49086006
:1011E0000846006800F00F00A84201D0012071E716
:1011F000207800F00400042807D11448006820F487
:10120000E050E168084311490860207800F00800C8
:10121000082808D10D48006820F46040216940EAA0
:10122000C1000A49086000F03DF808490968C1F3A7
:101230000311074A515CC840064908600020FFF7C7
:1012400099FA002046E70000003C024008380240BE
:10125000863B00081C000020014800687047000021
:101260001C00002000B5FFF7F7FF04490968C1F32F
:101270008221034A515CC84000BD0000083802408A
:10128000963B000800B5FFF7E7FF04490968C1F382
:101290004231034A515CC84000BD0000083802409A
:1012A000963B00082DE9F047002400250026A146C2
:1012B0002548006800F00C0020B1042805D008285B
:1012C0003AD105E0DFF8849039E0DFF8849036E029
:1012D0001D48001F006800F03F041B48001F006805
:1012E00000F4800078B11A481749091F0968C1F352
:1012F0008811A0FB01700146224600233846FEF704
:1013000097FF05460EE011480F49091F0968C1F310
:101310008811A0FB01700146224600233846FEF7E3
:1013200087FF05460848001F0068C0F30140401CC5
:101330004600B5FBF6F902E0DFF8109000BF00BFF1
:101340004846BDE8F0870000083802400024F40059
:1013500000127A00F8B5044600260CB90120F8BD49
:10136000207800F00100002871D0F848006800F0F3
:101370000C0004280DD0F548006800F00C00082887
:1013800013D1F248001F006800F48000B0F5800F10
:101390000BD1EE4808380068C0F34040002869D0FF
:1013A0006068002866D10120D9E700BF6068B0F509
:1013B000803F08D1E5480838006840F48030E349B0
:1013C000083908602EE0606868B9E04808380068AD
:1013D00020F48030DD49083908600846006820F4B0
:1013E000802008601EE06068B0F5A02F0DD1D748BE
:1013F0000838006840F48020D4490839086008465D
:10140000006840F4803008600CE0D048083800687C
:1014100020F48030CD49083908600846006820F47F
:101420008020086000BF606890B1FFF785F905462D
:1014300006E0FFF781F9401B642801D903208EE7FD
:10144000C24808380068C0F340400028F1D011E0DD
:10145000FFF772F9054606E0FFF76EF9401B6428B6
:1014600001D903207BE7B94808380068C0F3404041
:101470000028F1D1207800F00200022869D1B34899
:10148000006800F00C0058B1B048006800F00C0093
:1014900008281CD1AD48001F006800F48000B0B9D6
:1014A000AA4808380068C0F3400020B1E06801286D
:1014B00001D0012053E7A5480838006820F0F80063
:1014C000216940EAC100A1490839086041E0E068AB
:1014D00028B39E480838006840F001009B4908394D
:1014E0000860FFF729F9054606E0FFF725F9401BDC
:1014F000022801D9032032E7944808380068C0F375
:1015000040000028F1D091480838006820F0F80029
:10151000216940EAC1008D490839086019E08B480B
:101520000838006820F00100884908390860FFF792
:1015300003F9054606E0FFF7FFF8401B022801D932
:1015400003200CE7814808380068C0F340000028F9
:10155000F1D1207800F00800082836D16069D0B1B8
:101560007A486C30006840F0010078496C310860BE
:10157000FFF7E2F8054606E0FFF7DEF8401B022819
:1015800001D90320EBE671486C300068C0F34000DD
:101590000028F1D019E06D486C30006820F001009F
:1015A0006A496C310860FFF7C7F8054606E0FFF7A7
:1015B000C3F8401B022801D90320D0E663486C30F1
:1015C0000068C0F340000028F1D1207800F004004A
:1015D000042874D15D483830006800F0805080B92C
:1015E00000BF5A483830006840F0805057493831C1
:1015F00008600846006800F08050009000BF00BFFF
:1016000001265348006800F48070B0B95048006863
:1016100040F480704E490860FFF78EF8054606E0FA
:10162000FFF78AF8401B642801D9032097E6484851
:10163000006800F480700028F2D000BFA068012884
:1016400008D142486830006840F001003F496831E5
:1016500008602DE0A06868B93C486830006820F058
:1016600001003A49683108600846006820F004002B
:1016700008601DE0A06805280DD134486830006876
:1016800040F004003149683108600846006840F0C5
:10169000010008600CE02D486830006820F001006F
:1016A0002A49683108600846006820F00400086094
:1016B00000BFA068A8B1FFF73FF8054609E02EE09B
:1016C000FFF73AF8401B41F28831884201D90320E4
:1016D00045E61E4868300068C0F340000028EFD09F
:1016E00013E0FFF729F8054608E0FFF725F8401B4F
:1016F00041F28831884201D9032030E6134868302E
:101700000068C0F340000028EFD1012E07D10F4838
:101710003830006820F080500C4938310860A069EA
:10172000F0B30A48006800F00C00082868D0A069EF
:1017300002284DD105480838006820F08070034920
:1017400008390860FEF7F8FF05460AE0083802404D
:1017500000700040FEF7F0FF401B022801D9032073
:10176000FDE529480068C0F340600028F2D1D4E9C3
:1017700007010843616A40EA81110122A06AC2EBB5
:10178000500041EA00412C20005D41EA0061302018
:10179000005D41EA00701C49091D0860081F00E057
:1017A00030E0006840F08070091F0860FEF7C4FF59
:1017B000054606E0FEF7C0FF401B022801D90320C2
:1017C000CDE511480068C0F340600028F2D019E070
:1017D0000D48006820F080700B490860FEF7ACFFF0
:1017E000054606E0FEF7A8FF401B022801D90320AA
:1017F000B5E505480068C0F340600028F2D101E07B
:101800000120ACE50020AAE50038024070B504468E
:101810000CB9012070BD606A00B900BF0021A1624F
:1018200094F85D0028B9002084F85C00204600F0A0
:1018300053F8022084F85D002068006820F0400022
:1018400021680860E068B0F5E06F01D9002501E08B
:101850004FF48055E068B0F5706F05D0E068B0F5E2
:10186000E06F01D00021A162206B40B9E068B0F5C3
:10187000E06F02D90221216301E001212163D4E953
:10188000010108432169084361690843218B01F480
:1018900000710843E1690843216A0843A16A0843CB
:1018A000216808600421A06901EA1040616A0843C8
:1018B000616B0843E1680843284321684860206859
:1018C000C06920F400602168C86100202066012002
:1018D00084F85D0000209DE710B586B00446142111
:1018E00001A8FEF7DDFC26492068884246D100BFEA
:1018F0002448006840F48050224908600846006887
:1019000000F48050009000BF00BF00BF1D48143895
:10191000006840F001001B4914390860084600685F
:1019200000F00100009000BF00BF00BF0846006843
:1019300040F0080008600846006800F008000090C9
:1019400000BF00BF602001900220029000200390A1
:10195000032004900520059001A90B48FEF7D2FD55
:101960008020019002200290002003900320049028
:101970000520059001A90548FEF7C4FD06B010BD7D
:10198000003001404438024000000240000C024098
:1019900070B504462546681EB0F1807F01D3012052
:1019A0000FE0681E4FF0E02148610F214FF0FF303B
:1019B00002F0ACF800204FF0E021886107200861B8
:1019C000002070BD704770477047000030B5024678
:1019D0000B4600BF92F83C00012801D1022030BD27
:1019E000012082F83C0000BF022082F83D00106810
:1019F000416810688468114D1068A84203D0104DEA
:101A00001068A84203D121F470015868014321F005
:101A100070011868014324F080049868044310683A
:101A2000416010688460012082F83D0000BF002002
:101A300082F83C0000BF00BFD1E700000000014079
:101A40000004014010B504460CB9012010BD94F803
:101A50003D0028B9002084F83C00204600F00CF836
:101A6000022084F83D00211D206801F0ADFB01201B
:101A700084F83D000020E9E708B5094A0168914271
:101A80000DD100BF0749096841F48071054A116012
:101A90001146096801F48071009100BF00BF08BDC4
:101AA0000020004040380240704710B504462068CE
:101AB0000069C0F34000D8B12068C068C0F340009E
:101AC000B0B16FF002002168086101202077206822
:101AD000806900F0030018B12046FFF7E5FF05E03C
:101AE000204600F059F9204600F09CFA00202077AB
:101AF00020680069C0F38000D8B12068C068C0F3D6
:101B00008000B0B16FF004002168086102202077E6
:101B10002068806900F4407018B12046FFF7C4FFC8
:101B200005E0204600F038F9204600F07BFA00205E
:101B3000207720680069C0F3C000D8B12068C06871
:101B4000C0F3C000B0B16FF0080021680861042044
:101B500020772068C06900F0030018B12046FFF725
:101B6000A3FF05E0204600F017F9204600F05AFADE
:101B70000020207720680069C0F30010D8B12068E9
:101B8000C068C0F30010B0B16FF0100021680861A8
:101B9000082020772068C06900F4407018B1204602
:101BA000FFF782FF05E0204600F0F6F8204600F03F
:101BB00039FA002020772068006900F0010058B150
:101BC0002068C06800F0010030B16FF001002168AA
:101BD0000861204600F0C2FB20680069C0F3C01015
:101BE00058B12068C068C0F3C01030B16FF08000F9
:101BF000216808612046FFF7E6FE20680069C0F30F
:101C0000002058B12068C068C0F3C01030B16FF434
:101C10008070216808612046FFF7D4FE20680069C3
:101C2000C0F3801058B12068C068C0F3801030B194
:101C30006FF0400021680861204600F090FB2068AA
:101C40000069C0F3401058B12068C068C0F340106C
:101C500030B16FF02000216808612046FFF7B4FE24
:101C600010BD000010B586B00446142101A8FEF78F
:101C700017FB2068B0F1804F1CD100BF3E480068C0
:101C800040F001003C4908600846006800F001008F
:101C9000009000BF00BF4FF400400190022002906E
:101CA0000020039004900120059001A93348FEF71D
:101CB00029FC5EE03249206888421BD100BF2E48D3
:101CC000006840F004002C4908600846006800F0F5
:101CD0000400009000BF00BF40200190022002904D
:101CE0000020039004900220059001A92548FEF7EA
:101CF00009FC3EE02449206888421BD100BF1E48F1
:101D0000006840F008001C4908600846006800F0C0
:101D10000800009000BF00BF8814019002200290CC
:101D20000020039004900220059001A91748FEF7B7
:101D3000E9FB1EE01649206888421AD100BF0E4810
:101D4000006840F010000C4908600846006800F088
:101D50001000009000BF00BF2020019002200290E0
:101D60000020039004900320059001A90948FEF784
:101D7000C9FB06B010BD0000303802400000024030
:101D8000000400400008024000080040000C02402F
:101D90000040014000100240704770B504460D46F7
:101DA000164600BF94F83C00012801D1022070BD06
:101DB000012084F83C0000BF022084F83D000C2E76
:101DC00051D005DC4EB1042E1ED0082E7AD133E05E
:101DD000102E60D0142EF9D175E02946206801F04C
:101DE00071FA2068806940F00800216888612068E5
:101DF000806920F004002168886120688069296971
:101E000008432168886177E02946206801F094FA48
:101E10002068806940F400602168886120688069DA
:101E200020F480602168886120688069296940EA1F
:101E30000120216888615FE02946206801F0BCFA32
:101E40002068C06940F008002168C8612068C06946
:101E500020F004002168C8612068C069296908432E
:101E60002168C86148E02946206801F0E3FA20684B
:101E7000C06940F400602168C8612068C06920F42E
:101E800080602168C8612068C069296940EA012032
:101E90002168C86130E02946206801F0F7FA20681F
:101EA000406D40F00800216848652068406D20F0D2
:101EB0000400216848652068406D2969084321684D
:101EC000486519E017E02946206801F007FB206803
:101ED000406D40F40060216848652068406D20F442
:101EE0008060216848652068406D296940EA0120CA
:101EF0002168486500E000BF00BF012084F83D0074
:101F000000BF002084F83C0000BF00BF4FE710B5C1
:101F100004460CB9012010BD94F83D0028B90020FA
:101F200084F83C00204600F00DF8022084F83D00C3
:101F3000211D206801F048F9012084F83D000020AF
:101F4000E9E7000038B504462068B0F1804F16D1AB
:101F500000BF3048006840F001002E490860084684
:101F6000006800F00100009000BF00BF0022114691
:101F70001C20FEF759FC1C20FEF746FC49E02649D0
:101F80002068884216D100BF2248006840F0020055
:101F9000204908600846006800F00200009000BF79
:101FA00000BF002211461D20FEF73EFC1D20FEF75B
:101FB0002BFC2EE019492068884216D100BF154835
:101FC000006840F00400134908600846006800F00B
:101FD0000400009000BF00BF002211461E20FEF743
:101FE00023FC1E20FEF710FC13E00D4920688842F8
:101FF0000FD100BF0748001D006840F4803005493C
:10200000091D08600846006800F48030009000BF99
:1020100000BF38BD403802400004004000080040C6
:102020000040014010B504462949206809688842EB
:1020300014D128480078002849D02748008830B9B2
:102040000021234800F024F900202249087022488A
:102050000088401E00B22049088038E01F492068EF
:102060000968884213D11E48007880B31D48008853
:1020700030B90021194800F00BF900201849087008
:1020800018480088401E00B2164908801FE0164913
:102090002068096888421AD114480078B8B11448F9
:1020A00090ED000AB5EEC00AF1EE10FA06D100215B
:1020B0000D4800F0EDF800200C4908700C4890ED38
:1020C000000AF7EE000A30EE600A80ED000A10BD4B
:1020D00004390120080000200000002044390120BC
:1020E0000900002002000020843901200A0000209D
:1020F0000400002070B504460E46012231462068D7
:1021000001F0CEF811492068884203D010492068B8
:10211000884201D1012000E0002028B12068406CF5
:1021200040F400402168486420688068094900EA5A
:102130000105062D08D0B5F5803F05D02068006860
:1021400040F0010021680860002070BD00000140DF
:10215000000401400700010070B504460E4636B188
:10216000042E0BD0082E10D00C2E1CD114E02068A9
:10217000C06840F002002168C86015E02068C068AF
:1021800040F004002168C8600EE02068C06840F09C
:1021900008002168C86007E02068C06840F01000AF
:1021A0002168C86000E000BF00BF012231462068FE
:1021B00001F076F811492068884203D01049206860
:1021C000884201D1012000E0002028B12068406C45
:1021D00040F400402168486420688068094900EAAA
:1021E0000105062D08D0B5F5803F05D020680068B0
:1021F00040F0010021680860002070BD000001402F
:10220000000401400700010030B504460D460022DD
:102210002946206801F044F81B492068884203D011
:102220001A492068884201D1012000E0002090B1C5
:1022300000BF2068006A41F21111084050B92068BF
:10224000006A8910084028B92068406C20F40040DA
:102250002168486400BF00BF2068006A41F2111184
:10226000084050B92068006A8910084028B92068E1
:10227000006820F001002168086000BF012084F898
:102280003D00002030BD000000000140000401407E
:1022900030B504460D4635B1042D0BD0082D10D0B5
:1022A0000C2D1CD114E02068C06820F002002168C9
:1022B000C86015E02068C06820F004002168C8608C
:1022C0000EE02068C06820F008002168C86007E0C0
:1022D0002068C06820F010002168C86000E000BFDE
:1022E00000BF00222946206800F0DAFF1949206863
:1022F000884203D018492068884201D1012000E0BB
:10230000002090B100BF2068006A41F2111108401E
:1023100050B92068006A8910084028B92068406CCC
:1023200020F400402168486400BF00BF2068006AB4
:1023300041F21111084050B92068006A8910084024
:1023400028B92068006820F001002168086000BFFB
:10235000002030BD0000014000040140704770477C
:10236000704700002DE9F04704462068C5692068E1
:1023700006682068876805F00F08B8F1000F0CD1D7
:1023800005F0200048B106F0200030B1206E10B1F9
:102390002046216E8847BDE8F087B8F1000F71D064
:1023A00007F0010018B906F49070002879D005F004
:1023B000010048B106F4807030B101202168086244
:1023C000E06F40F00100E06705F0020048B107F05F
:1023D000010030B1022021680862E06F40F0040083
:1023E000E06705F0040048B107F0010030B10420B7
:1023F00021680862E06F40F00200E06705F0080025
:1024000060B106F0200010B907F0010030B10820DB
:1024100021680862E06F40F00800E067E06F80B379
:1024200005F0200038B106F0200020B1206E10B178
:102430002046216E8847D4F87C902068806800F0A0
:102440004000402802D009F0080020B3204601F0E7
:1024500023F92068806800F04000402817D12068E8
:10246000806820F0400021688860E06E58B119480B
:10247000E16E0865E06EFEF71DF810B1E06E016DCB
:1024800088470DE00DE02046FFF76AFF08E0204690
:10249000FFF766FF04E02046FFF762FF0020E067D9
:1024A00079E705F0800040B106F0800028B1606E49
:1024B00010B12046616E88476DE705F0400030B1ED
:1024C00006F0400018B1204601F0F7F863E700BFBE
:1024D00061E700008136000810B504460CB9012000
:1024E00010BDA06900B100E000BF606F28B90020F6
:1024F00084F87000204600F029F8242060672068E6
:10250000006820F0010021680860204601F0E6F82C
:10251000012800D1E4E7606A10B1204601F010F80C
:102520002068406820F490402168486020688068F6
:1025300020F02A00216888602068006840F00100CF
:1025400021680860204601F077F8C9E710B586B029
:102550000446142101A8FDF7A3FE3A4920688842E9
:1025600035D100BF3848006840F400203649086083
:102570000846006800F40020009000BF00BF00BFC4
:1025800031481038006840F004002F4910390860C5
:102590000846006800F00400009000BF00BF4FF440
:1025A00040600190022002900020039003200490DC
:1025B0000820059001A92548FDF7A4FF0022114637
:1025C0003420FEF731F93420FEF71EF938E02049B7
:1025D0002068884234D100BF1B48006840F4802046
:1025E000194908600846006800F48020009000BF88
:1025F00000BF00BF14481038006840F008001249BE
:10260000103908600846006800F00800009000BF1C
:1026100000BF4FF440700190022002900020039010
:10262000032004900720059001A90A48FDF76AFFDE
:10263000002211462720FEF7F7F82720FEF7E4F8DE
:1026400006B010BD004C0040403802400008024077
:1026500000480040000C0240704700BFFEE7000049
:102660002DE9F04705460E46174698461FFA88F3AF
:10267000BAB2B1B2A8B200F033F8814600241FE02C
:1026800000BF144800781449097808430028F8D19D
:10269000DFF848A004F1010C0AEB8C0CBCF9023005
:1026A000D4460CEB840CBCF9022004F1010C3AF97D
:1026B0002C10D4463CF9240000F05EFB601C84B270
:1026C000A9F10100A042DBDC0FFA89F0FDF7DEFE84
:1026D000BDE8F087080000200900002080EA002003
:1026E0002DE9FF4F83B005460E4600200090059867
:1026F000401B07B20698801B0FFA80F8002F02DB00
:102700000120029004E04FF0FF300290784207B2BF
:10271000B8F1000F02DB0120019006E04FF0FF301E
:102720000190C8F100000FFA80F878000FFA80FAE3
:102730004FEA48000FFA80FB474523DDABEB07006B
:1027400004B24FF000091AE0002231B228B200F0C2
:1027500045F80098401C80B20090002C05DBA4EBEB
:102760000A0004B20198304486B204EB0B0004B2B4
:102770000298284485B209F101000FFA80F9B945A1
:10278000E2DD22E0AAEB080004B24FF000091AE0F3
:10279000002231B228B200F021F80098401C80B22B
:1027A0000090002C05DBA4EB0B0004B20298284437
:1027B00085B204EB0A0004B20198304486B209F1F4
:1027C00001000FFA80F9C145E2DD0122002108462F
:1027D00000F004F8009807B0BDE8F08F10B51AB10A
:1027E00000230A4C238010BD094B084C248823F891
:1027F0002400064C248803EB84035980034B1B8878
:102800005B1C024C238000BFEDE700000E0000209F
:1028100080EA002000B587B0142102A8FDF740FD32
:1028200000BF9248006840F01000904908600846D8
:10283000006800F01000019000BF00BF00BF084614
:10284000006840F0040008600846006800F00400DA
:10285000019000BF00BF00BF0846006840F02000A4
:1028600008600846006800F02000019000BF00BF2B
:1028700000BF0846006840F0800008600846006815
:1028800000F08000019000BF00BF00BF0846006854
:1028900040F0010008600846006800F00100019067
:1028A00000BF00BF00BF0846006840F0020008609B
:1028B0000846006800F00200019000BF00BF00BFA2
:1028C0000846006840F0080008600846006800F00C
:1028D0000800019000BF00BF00BF0846006840F03C
:1028E000400008600846006800F04000019000BF0A
:1028F00000BF002208215E48FDF718FF00224FF4B8
:1029000060515C48FDF712FF002240215A48FDF754
:102910000DFF002280215948FDF708FF0022032106
:102920005748FDF703FF4FF40050029055480390BD
:102930000020049002A95448FDF7E4FD4FF4F8602C
:10294000029000200390049002A94A48FDF7DAFDA6
:102950003220029002200390002004900320059072
:102960000B20069002A94848FDF7CCFD8620029076
:102970000220039000200490032005900B20069075
:1029800002A93B48FDF7BEFD0820029001200390FC
:1029900000200490059002A93548FDF7B3FD4FF4DF
:1029A000605002900120039000200490059002A93D
:1029B0003048FDF7A7FD4FF400500290022003902D
:1029C00000200490032005900B20069002A92B48BC
:1029D000FDF798FD40200290012003900020049014
:1029E000059002A92448FDF78DFD4FF4E8500290B0
:1029F0000220039000200490032005900A200690F6
:102A000002A91B48FDF77EFD4FF4007002900020E4
:102A10000390049002A91648FDF774FD4FF420506E
:102A200002900220039000200490032005900B20C8
:102A3000069002A91048FDF765FD80200290012054
:102A4000039000200490059002A90C48FDF75AFD60
:102A5000032002900120039000200490059002A919
:102A60000748FDF74FFD07B000BD000030380240B9
:102A7000000002400014024000180240000402401E
:102A800000100240000011100008024010B511486B
:102A9000114908604FF48270486000210E4881603F
:102AA0004FF4E061C1600021016141614FF40071A8
:102AB00081610021C1610162416281620721C162BD
:102AC0000021016308214163FEF7A0FE08B1FDF774
:102AD000F0FC10BD00300140A038012010B50948BD
:102AE000094908606B204860002107488160012186
:102AF000C160002101618161FEF7A4FF08B1FDF70B
:102B0000D8FC10BD00200040043A012000B58BB075
:102B10000020089009900A901C2101A8FDF7C0FB35
:102B20004FF08040184908606B204860002116482B
:102B3000816044F62061C160002101618161FFF77D
:102B4000E6F908B1FDF7B5FC002008900A9008A945
:102B50000D48FEF73BFF08B1FDF7ABFC602001908C
:102B60004FF47A700290002003900590002201A992
:102B70000548FFF712F908B1FDF79BFC0248FFF783
:102B800071F80BB000BD00000439012000B58BB016
:102B90000020089009900A901C2101A8FDF780FBF5
:102BA0001848194908606B20486000211648816068
:102BB00044F62061C160002101618161FFF7A7F93E
:102BC00008B1FDF776FC002008900A9008A90E488D
:102BD000FEF7FCFE08B1FDF76CFC602001904FF49D
:102BE0007A700290002003900590002201A9064807
:102BF000FFF7D3F808B1FDF75CFC0348FFF732F8A4
:102C00000BB000BD000400404439012000B58BB07A
:102C10000020089009900A901C2101A8FDF740FBB4
:102C20001848194908606B204860002116488160E7
:102C300044F62061C160002101618161FFF767F9FD
:102C400008B1FDF736FC002008900A9008A90E484C
:102C5000FEF7BCFE08B1FDF72CFC602001904FF49C
:102C60007A700290002003900590002201A9064886
:102C7000FFF793F808B1FDF71CFC0348FEF7F2FFDD
:102C80000BB000BD000800408439012000B587B0BA
:102C90001C216846FDF704FB144815490860D7203D
:102CA00048600021124881604FF4FA61C160002140
:102CB000016180218161FFF72AF908B1FDF7F9FB75
:102CC000602000904FF47A700190002002900490F0
:102CD000002269460648FFF760F808B1FDF7E9FBF6
:102CE0000348FEF7BFFF07B000BD000000400140F1
:102CF000C439012010B50D480D4908604FF4E1308A
:102D0000486000210A488160C16001610C21416175
:102D100000218161C16101620020054948620846C5
:102D2000FFF7DAFB08B1FDF7C4FB10BD004C004013
:102D3000443A012010B50D480D4908604FF4E130C8
:102D4000486000210A488160C16001610C21416135
:102D500000218161C1610162002005494862084685
:102D6000FFF7BAFB08B1FDF7A4FB10BD0048004017
:102D7000C43A012000BFFEE72DE9F04106460F46A8
:102D800014461D463946304600F006F829462046CE
:102D900000F04CF8BDE8F08170B504460D46281BE4
:102DA00000B21E4908800846008800EBC00101EB14
:102DB000001000B2194908800846B0F90000002848
:102DC0000BDD80211648FDF7A9FC00B970BD01227A
:102DD000D1021348FDF7AAFC16E01048B0F9000034
:102DE000002811DA40210E48FDF798FC00B9EDE704
:102DF0000A480088404200B20849088000224FF487
:102E000000610748FDF792FC00210648FFF7A4F98E
:102E100001200549087000BFD8E70000000000202D
:102E200000140240043901200800002070B5044657
:102E30000D46281B00B21F4908800846008800EB99
:102E4000C00101EB001000B21A4908800846B0F931
:102E5000000000280CDD4FF400711748FDF75EFC00
:102E600000B970BD012211031348FDF75FFC17E0A4
:102E70001048B0F90000002812DA4FF480710E48B3
:102E8000FDF74CFC00B9ECE70A480088404200B26C
:102E90000849088000224FF480510748FDF746FC9E
:102EA00000210648FFF758F901200549087000BFC6
:102EB000D7E700000200002000140240443901203E
:102EC0000900002010B52DED028BB0EE408B38EEDE
:102ED000C80A204880ED000A90ED000AF3EE090AC6
:102EE00020EE200A80ED000A90ED000AB5EEC00A3F
:102EF000F1EE10FA05DD012251031748FDF716FC2B
:102F00001FE0144890ED000AB5EEC00AF1EE10FA89
:102F100017D24FF480611048FDF700FC10B9BDECEA
:102F2000028B10BD0B4890ED000ADFED0C0A30EE6D
:102F3000C00A80ED000A00224FF400510648FDF758
:102F4000F5FB00210648FFF707F901200549087045
:102F500000BFE4E70400002000140240000000006D
:102F6000843901200A00002010B500224FF40061CE
:102F70002748FDF7DBFB00224FF480512448FDF782
:102F8000D5FB00224FF400512148FDF7CFFB002173
:102F90002048FFF7AFF800211F48FFF7ABF80021EA
:102FA0001E48FFF7A7F82FE040211948FDF7B6FBB0
:102FB00018B900211748FFF727F94FF4807114481A
:102FC000FDF7ACFB18B900211348FFF71DF94FF4CA
:102FD00080610F48FDF7A2FB18B900210F48FFF7E9
:102FE00013F940210A48FDF799FB04464FF480711C
:102FF0000748FDF793FB04434FF480610448FDF755
:103000008DFB044304B900E0CEE700BF10BD000013
:103010000014024004390120443901208439012080
:1030200010B500210548FFF7EFF800210448FFF72D
:10303000EBF800210348FFF7E7F810BD0439012041
:10304000443901208439012070477047704710B51A
:10305000FDF778FB10BD000000B5B7B034212AA8F9
:10306000FDF71EF9142125A8FDF71AF9902101A8F2
:10307000FDF716F9FDF772FC00BF2C48006840F020
:1030800080502A4908600846006800F0805000908F
:1030900000BF00BF00BF2648006840F440402449FC
:1030A00008600846006800F44040009000BF00BF80
:1030B00001202A904FF4A0202B900220309041054F
:1030C0002AA8C16104210162D821416202218162E2
:1030D0000921C162FEF73EF908B1FDF7EAF9FDF7F3
:1030E000F5FB08B1FDF7E5F90F20259002202690A9
:1030F000002027904FF4A05028904FF48050299042
:10310000072125A8FDF7E0FF08B1FDF7D2F94FF43C
:103110004070019000201490159001A8FDF728FC44
:1031200008B1FDF7C6F937B000BD000040380240D5
:10313000007000401448006840F4700012490860B4
:103140001248006840F001001049086000200F4953
:10315000083108600D4800680D4908400B490860B7
:103160000C48091D0860081F006820F48020091F12
:103170000860002005490C3108604FF000600249EA
:10318000803908607047000088ED00E00038024098
:10319000FFFFF6FE1030002410B50248FEF785FC54
:1031A00010BD00000439012010B50248FEF77DFC77
:1031B00010BD00004439012010B50248FEF775FC2F
:1031C00010BD00008439012010B50268294B9842D7
:1031D0000ED0B0F1804F0BD0274B984208D0274B30
:1031E000984205D0264B984202D0264B984203D1F4
:1031F00022F070024B681A431E4B984220D0B0F167
:10320000804F1DD01C4B98421AD01C4B984217D0AF
:103210001B4B984214D01B4B984211D01A4B98422A
:103220000ED01A4B98420BD0194B984208D0194B2C
:10323000984205D0184B984202D0184B984203D1BF
:1032400022F44072CB681A4322F080034C6943EAAF
:10325000040202608B68C3620B688362054B98426C
:1032600002D0084B984201D10B69036301234361EB
:1032700010BD0000000001400004004000080040B4
:10328000000C0040000401400040014000440140A7
:103290000048014000180040001C00400020004091
:1032A00030B501F01F05012404FA05F3046A9C43BC
:1032B0000462046A01F01F0502FA05F52C4304625A
:1032C00030BD000030B5056A25F001050562026ACF
:1032D00043688469154D2C4024F003040D682C4389
:1032E00022F002028D682A43114DA84200D103E06A
:1032F000104DA84206D100BF22F00802CD682A4333
:1033000022F004020A4DA84202D00A4DA84207D179
:1033100023F4807323F400734D692B438D692B4391
:10332000436084614D684563026230BD8FFFFEFFDC
:10333000000001400004014030B5056A25F0100589
:103340000562026A43688469184D2C4024F4407475
:103350000D6844EA052422F020028D6842EA051235
:10336000134DA84200D103E0124DA84207D100BF7F
:1033700022F08002CD6842EA051222F040020C4D94
:10338000A84202D00B4DA84209D123F4806323F454
:1033900000634D6943EA85038D6943EA8503436011
:1033A00084614D688563026230BD0000FF8FFFFEBF
:1033B000000001400004014030B5056A25F4807525
:1033C0000562026A4368C469174D2C4024F0030467
:1033D0000D682C4322F400728D6842EA0522134DD9
:1033E000A84200D103E0124DA84207D100BF22F449
:1033F0000062CD6842EA052222F480620B4DA842A9
:1034000002D00B4DA84209D123F4805323F400537A
:103410004D6943EA05138D6943EA05134360C461AE
:103420004D68C563026230BD8FFFFEFF00000140A2
:103430000004014030B5056A25F480550562036A31
:103440004468C2690E4D2A4022F440720D6842EA77
:10345000052223F400538D6843EA0533094DA84241
:1034600002D0094DA84204D124F480444D6944EAB5
:1034700085144460C2614D680564036230BD00007C
:10348000FF8FFFFE000001400004014030B5056AD7
:1034900025F480350562026A4368446D0C4D2C406A
:1034A0000D682C4322F400320D8942EA0542094D91
:1034B000A84202D0084DA84204D123F480334D69BC
:1034C00043EA0523436044654D688565026230BD6B
:1034D0008FFFFEFF000001400004014030B5056A87
:1034E00025F480150562026A4368446D0D4D2C4039
:1034F0000D6844EA052422F400120D8942EA0552BF
:10350000094DA84202D0094DA84204D123F48023DA
:103510004D6943EA8523436044654D68C565026291
:1035200030BD0000FF8FFFFE00000140000401409D
:1035300010B50248FEF716FF10BD0000443A012006
:1035400090F8241001F0010139B10168496821F4B3
:103550000031826A11430268516090F8241001F032
:103560000201022907D10168496821F48031C26A49
:1035700011430268516090F8241001F004010429FD
:1035800007D10168496821F48021026B1143026868
:10359000516090F8241001F00801082907D1016852
:1035A000496821F40041426B11430268516090F870
:1035B000241001F01001102907D10168896821F455
:1035C0008051826B11430268916090F8241001F0E1
:1035D0002001202907D10168896821F40051C26BBC
:1035E00011430268916090F8241001F040014029D5
:1035F00013D10168496821F48011026C11430268FB
:103600005160016CB1F5801F07D10168496821F450
:10361000C001426C11430268516090F8241001F01F
:103620008001802907D10168496821F40021826C5A
:10363000114302685160704738B504460020E067C6
:10364000FDF77AF805462068006800F008000828B1
:103650000CD16FF07E402B4600224FF400110090F9
:10366000204600F00DFA08B1032038BD2020606725
:10367000A06700BF002084F8700000BF00BFF4E71F
:1036800070B50546AC6B0020A4F85A00A4F85200AF
:103690002046FEF765FE70BD0168096821F490714F
:1036A000026811600168896821F001010268916077
:1036B0002021816700210166704710B5044620680B
:1036C000006820F04000216808602020606700202A
:1036D00060662046FEF7C0FF10BD00002DE9F047F0
:1036E00004460026B1462169A06808436169084381
:1036F000E16940EA010720680068D549084038437D
:10370000216808602068406820F44050E168084360
:1037100021684860A769206A07432068806820F410
:10372000306038432168886000BFCA4920688842F9
:1037300016D1C948006800F0030030B1012808D054
:10374000022804D0032808D105E0012507E002255E
:1037500005E0042503E0082501E0102500BFC9E0CD
:10376000BE492068884216D1BB48006800F00C00B2
:1037700030B1042808D0082804D00C2808D105E06E
:10378000002507E0022505E0042503E0082501E007
:10379000102500BFAEE0B2492068884216D1AE487D
:1037A000006800F0300030B1102808D0202804D084
:1037B000302808D105E0002507E0022505E00425B2
:1037C00003E0082501E0102500BF93E0A54920682B
:1037D000884216D1A048006800F0C00030B14028EF
:1037E00008D0802804D0C02808D105E0002507E0D3
:1037F000022505E0042503E0082501E0102500BFAF
:1038000078E099492068884219D19348006800F40B
:10381000407048B1B0F5807F0AD0B0F5007F05D088
:10382000B0F5407F08D105E0002507E0022505E05E
:10383000042503E0082501E0102500BF5AE08B496C
:103840002068884219D18448006800F4406048B17B
:10385000B0F5806F0AD0B0F5006F05D0B0F5406FBD
:1038600008D105E0012507E0022505E0042503E075
:10387000082501E0102500BF3CE07D492068884212
:1038800019D17548006800F4405048B1B0F5805F28
:103890000AD0B0F5005F05D0B0F5405F08D105E073
:1038A000002507E0022505E0042503E0082501E0E6
:1038B000102500BF1EE06F492068884219D1664874
:1038C000006800F4404048B1B0F5804F0AD0B0F530
:1038D000004F05D0B0F5404F08D105E0002507E0C6
:1038E000022505E0042503E0082501E0102500BFBE
:1038F00000E0102500BFE069B0F5004F57D1042D5E
:1039000028D005DC4DB1012D11D0022D36D118E0A3
:10391000082D29D0102D31D131E0FDF7A3FC400056
:10392000616800EB5100B0FBF1F086B22AE0FDF7D0
:10393000A9FC4000616800EB5100B0FBF1F086B2D9
:1039400020E04D49606801EB50006168B0FBF1F088
:1039500086B217E0FDF7A6FC4000616800EB51005D
:10396000B0FBF1F086B20DE04FF48031606801EBFE
:1039700050006168B0FBF1F086B203E000BF4FF089
:10398000010900BF00BF102E0ED3B6F5803F0BD249
:103990004FF6F07006EA0008C6F3420048EA000855
:1039A0002068C0F80C804DE04FF001094AE0042D7A
:1039B00026D005DC4DB1012D10D0022D33D116E0FB
:1039C000082D26D0102D2ED12EE0FDF74BFC61687E
:1039D00000EB5100B0FBF1F086B228E0FDF752FC9D
:1039E000616800EB5100B0FBF1F086B21FE02349A3
:1039F000606801EB50006168B0FBF1F086B216E040
:103A0000FDF750FC616800EB5100B0FBF1F086B2AD
:103A10000DE04FF40041606801EB50006168B0FBBD
:103A2000F1F086B203E000BF4FF0010900BF00BF14
:103A3000102E05D3B6F5803F02D22068C66001E0A3
:103A40004FF001090020206660664846BDE8F08717
:103A5000F369FFEF0010014090380240004400403D
:103A600000480040004C004000500040001401405D
:103A700000780040007C00400048E8010024F40089
:103A80002DE9F04104460D4617469846069E1FE074
:103A9000701CE8B1FCF750FEA0EB0800B04200D863
:103AA000B6B92068006820F4D070216808602068EA
:103AB000806820F001002168886020206067A0678E
:103AC00000BF002084F8700000BF0320BDE8F08133
:103AD0002068C0692840A84201D1012000E00020F0
:103AE000B842D5D00020F1E710B50248FEF73AFC05
:103AF00010BD0000C43A012000BFFEE70248006884
:103B0000C0F30220704700000CED00E010B5002863
:103B100004DB0A07130E054A135406E00A07140EC5
:103B2000034A00F00F031B1FD45410BD00E400E053
:103B300018ED00E002E008C8121F08C1002AFAD1FF
:103B400070477047002001E001C1121F002AFBD11D
:103B50007047FCF703FEFFF77FFAFEF75BFEFEF708
:103B6000BDFFFFF7E7F8FEF791FFFFF74FF8FFF70C
:103B7000C1F8FEF7CBFFFFF709F8FFF787F8FCF76E
:103B8000D5FB00BFFEE700000000000000000102BE
:103B900003040607080900000000010203040000F6
:103BA000C03B00080000002020000000343B00085B
:103BB000E03B000820000020283F0100443B0008B3
:103BC00000000000000000000000000000000000F5
:103BD0000000000010000000010000000024F400BC
:04000005080001F9F5
:00000001FF
